{
  "_format": "hh-sol-artifact-1",
  "contractName": "NftByBarter",
  "sourceName": "src/backend/contracts/NftByBarter.sol",
  "abi": [
    {
      "inputs": [
        {
          "internalType": "uint256",
          "name": "_feePercent",
          "type": "uint256"
        }
      ],
      "stateMutability": "nonpayable",
      "type": "constructor"
    },
    {
      "anonymous": false,
      "inputs": [
        {
          "indexed": false,
          "internalType": "uint256",
          "name": "itemId",
          "type": "uint256"
        },
        {
          "indexed": true,
          "internalType": "address",
          "name": "nft",
          "type": "address"
        },
        {
          "indexed": false,
          "internalType": "uint256",
          "name": "tokenId",
          "type": "uint256"
        },
        {
          "indexed": false,
          "internalType": "uint256",
          "name": "price",
          "type": "uint256"
        },
        {
          "indexed": true,
          "internalType": "address",
          "name": "swapper",
          "type": "address"
        }
      ],
      "name": "OfferedSwap",
      "type": "event"
    },
    {
      "anonymous": false,
      "inputs": [
        {
          "indexed": false,
          "internalType": "uint256",
          "name": "itemId",
          "type": "uint256"
        },
        {
          "indexed": true,
          "internalType": "address",
          "name": "nft",
          "type": "address"
        },
        {
          "indexed": false,
          "internalType": "uint256",
          "name": "tokenId",
          "type": "uint256"
        },
        {
          "indexed": false,
          "internalType": "uint256",
          "name": "price",
          "type": "uint256"
        },
        {
          "indexed": true,
          "internalType": "address",
          "name": "swapper",
          "type": "address"
        }
      ],
      "name": "SwappedOne",
      "type": "event"
    },
    {
      "anonymous": false,
      "inputs": [
        {
          "indexed": false,
          "internalType": "uint256",
          "name": "itemId",
          "type": "uint256"
        },
        {
          "indexed": true,
          "internalType": "address",
          "name": "nft",
          "type": "address"
        },
        {
          "indexed": false,
          "internalType": "uint256",
          "name": "tokenId",
          "type": "uint256"
        },
        {
          "indexed": false,
          "internalType": "uint256",
          "name": "price",
          "type": "uint256"
        },
        {
          "indexed": true,
          "internalType": "address",
          "name": "swapper",
          "type": "address"
        }
      ],
      "name": "SwappedTwo",
      "type": "event"
    },
    {
      "inputs": [],
      "name": "feeAccount",
      "outputs": [
        {
          "internalType": "address payable",
          "name": "",
          "type": "address"
        }
      ],
      "stateMutability": "view",
      "type": "function"
    },
    {
      "inputs": [],
      "name": "feePercent",
      "outputs": [
        {
          "internalType": "uint256",
          "name": "",
          "type": "uint256"
        }
      ],
      "stateMutability": "view",
      "type": "function"
    },
    {
      "inputs": [
        {
          "internalType": "uint256",
          "name": "_itemId",
          "type": "uint256"
        }
      ],
      "name": "getTotalPrice",
      "outputs": [
        {
          "internalType": "uint256",
          "name": "",
          "type": "uint256"
        }
      ],
      "stateMutability": "view",
      "type": "function"
    },
    {
      "inputs": [],
      "name": "itemCount",
      "outputs": [
        {
          "internalType": "uint256",
          "name": "",
          "type": "uint256"
        }
      ],
      "stateMutability": "view",
      "type": "function"
    },
    {
      "inputs": [
        {
          "internalType": "contract IERC721",
          "name": "_nft",
          "type": "address"
        },
        {
          "internalType": "uint256",
          "name": "_tokenId",
          "type": "uint256"
        },
        {
          "internalType": "uint256",
          "name": "_price",
          "type": "uint256"
        }
      ],
      "name": "listSwapItem",
      "outputs": [],
      "stateMutability": "nonpayable",
      "type": "function"
    },
    {
      "inputs": [
        {
          "internalType": "uint256",
          "name": "_itemId1",
          "type": "uint256"
        },
        {
          "internalType": "uint256",
          "name": "_itemId2",
          "type": "uint256"
        }
      ],
      "name": "swapItem",
      "outputs": [],
      "stateMutability": "payable",
      "type": "function"
    },
    {
      "inputs": [
        {
          "internalType": "uint256",
          "name": "",
          "type": "uint256"
        }
      ],
      "name": "swapitems",
      "outputs": [
        {
          "internalType": "uint256",
          "name": "itemId",
          "type": "uint256"
        },
        {
          "internalType": "contract IERC721",
          "name": "nft",
          "type": "address"
        },
        {
          "internalType": "uint256",
          "name": "tokenId",
          "type": "uint256"
        },
        {
          "internalType": "uint256",
          "name": "price",
          "type": "uint256"
        },
        {
          "internalType": "address payable",
          "name": "swapper",
          "type": "address"
        },
        {
          "internalType": "bool",
          "name": "swapped",
          "type": "bool"
        }
      ],
      "stateMutability": "view",
      "type": "function"
    }
  ],
  "bytecode": "0x60c06040523480156200001157600080fd5b50604051620015083803806200150883398181016040528101906200003791906200009c565b60016000819055503373ffffffffffffffffffffffffffffffffffffffff1660808173ffffffffffffffffffffffffffffffffffffffff1660601b815250508060a0818152505050620000ec565b6000815190506200009681620000d2565b92915050565b600060208284031215620000af57600080fd5b6000620000bf8482850162000085565b91505092915050565b6000819050919050565b620000dd81620000c8565b8114620000e957600080fd5b50565b60805160601c60a0516113e562000123600039600081816101e60152610b290152600081816101bc01526108f401526113e56000f3fe6080604052600436106100705760003560e01c80639ea975831161004e5780639ea97583146100f6578063b114d42d14610138578063b903497e14610161578063ca7dd3751461017d57610070565b806365e17c9d146100755780636bfb0d01146100a05780637fd6f15c146100cb575b600080fd5b34801561008157600080fd5b5061008a6101ba565b6040516100979190610db3565b60405180910390f35b3480156100ac57600080fd5b506100b56101de565b6040516100c29190610f1c565b60405180910390f35b3480156100d757600080fd5b506100e06101e4565b6040516100ed9190610f1c565b60405180910390f35b34801561010257600080fd5b5061011d60048036038101906101189190610bff565b610208565b60405161012f96959493929190610f37565b60405180910390f35b34801561014457600080fd5b5061015f600480360381019061015a9190610bb0565b610291565b005b61017b60048036038101906101769190610c28565b610563565b005b34801561018957600080fd5b506101a4600480360381019061019f9190610bff565b610b23565b6040516101b19190610f1c565b60405180910390f35b7f000000000000000000000000000000000000000000000000000000000000000081565b60015481565b7f000000000000000000000000000000000000000000000000000000000000000081565b60026020528060005260406000206000915090508060000154908060010160009054906101000a900473ffffffffffffffffffffffffffffffffffffffff16908060020154908060030154908060040160009054906101000a900473ffffffffffffffffffffffffffffffffffffffff16908060040160149054906101000a900460ff16905086565b600260005414156102d7576040517f08c379a00000000000000000000000000000000000000000000000000000000081526004016102ce90610edc565b60405180910390fd5b600260008190555060008111610322576040517f08c379a000000000000000000000000000000000000000000000000000000000815260040161031990610e3c565b60405180910390fd5b60016000815480929190610335906111bb565b91905055508273ffffffffffffffffffffffffffffffffffffffff166323b872dd3330856040518463ffffffff1660e01b815260040161037793929190610e05565b600060405180830381600087803b15801561039157600080fd5b505af11580156103a5573d6000803e3d6000fd5b505050506040518060c0016040528060015481526020018473ffffffffffffffffffffffffffffffffffffffff1681526020018381526020018281526020013373ffffffffffffffffffffffffffffffffffffffff168152602001600015158152506002600060015481526020019081526020016000206000820151816000015560208201518160010160006101000a81548173ffffffffffffffffffffffffffffffffffffffff021916908373ffffffffffffffffffffffffffffffffffffffff160217905550604082015181600201556060820151816003015560808201518160040160006101000a81548173ffffffffffffffffffffffffffffffffffffffff021916908373ffffffffffffffffffffffffffffffffffffffff16021790555060a08201518160040160146101000a81548160ff0219169083151502179055509050503373ffffffffffffffffffffffffffffffffffffffff168373ffffffffffffffffffffffffffffffffffffffff167fdb4396e0ae4a4e3f039a3c9d51b950de5cf831fd090934e7a54785be4b6697e2600154858560405161054e93929190610f98565b60405180910390a36001600081905550505050565b600260005414156105a9576040517f08c379a00000000000000000000000000000000000000000000000000000000081526004016105a090610edc565b60405180910390fd5b600260008190555060006105bc83610b23565b9050600060026000858152602001908152602001600020905060006002600085815260200190815260200160002090506000851180156105fe57506001548511155b61063d576040517f08c379a000000000000000000000000000000000000000000000000000000000815260040161063490610e9c565b60405180910390fd5b60008411801561064f57506001548411155b61068e576040517f08c379a000000000000000000000000000000000000000000000000000000000815260040161068590610ebc565b60405180910390fd5b60026000858152602001908152602001600020600301546002600087815260200190815260200160002060030154146106fc576040517f08c379a00000000000000000000000000000000000000000000000000000000081526004016106f390610e5c565b60405180910390fd5b8160040160149054906101000a900460ff161561074e576040517f08c379a000000000000000000000000000000000000000000000000000000000815260040161074590610e7c565b60405180910390fd5b8060040160149054906101000a900460ff16156107a0576040517f08c379a000000000000000000000000000000000000000000000000000000000815260040161079790610efc565b60405180910390fd5b8160010160009054906101000a900473ffffffffffffffffffffffffffffffffffffffff1673ffffffffffffffffffffffffffffffffffffffff166323b872dd303385600201546040518463ffffffff1660e01b815260040161080593929190610e05565b600060405180830381600087803b15801561081f57600080fd5b505af1158015610833573d6000803e3d6000fd5b505050508060010160009054906101000a900473ffffffffffffffffffffffffffffffffffffffff1673ffffffffffffffffffffffffffffffffffffffff166323b872dd308460040160009054906101000a900473ffffffffffffffffffffffffffffffffffffffff1684600201546040518463ffffffff1660e01b81526004016108c093929190610dce565b600060405180830381600087803b1580156108da57600080fd5b505af11580156108ee573d6000803e3d6000fd5b505050507f000000000000000000000000000000000000000000000000000000000000000073ffffffffffffffffffffffffffffffffffffffff166108fc83600301548561093c91906110c1565b9081150290604051600060405180830381858888f19350505050158015610967573d6000803e3d6000fd5b5060018260040160146101000a81548160ff02191690831515021790555060018160040160146101000a81548160ff0219169083151502179055508160040160009054906101000a900473ffffffffffffffffffffffffffffffffffffffff1673ffffffffffffffffffffffffffffffffffffffff168260010160009054906101000a900473ffffffffffffffffffffffffffffffffffffffff1673ffffffffffffffffffffffffffffffffffffffff167f37d53cd5af988b89a06f202cefcadd1243c81b94cff7df804c06eb3dec326e808785600201548660030154604051610a5393929190610f98565b60405180910390a38060040160009054906101000a900473ffffffffffffffffffffffffffffffffffffffff1673ffffffffffffffffffffffffffffffffffffffff168160010160009054906101000a900473ffffffffffffffffffffffffffffffffffffffff1673ffffffffffffffffffffffffffffffffffffffff167f844ae6fb2d8f4a00be606ae536aaa909ee95edd4537731e4776042a7df97cc768684600201548560030154604051610b0c93929190610f98565b60405180910390a350505060016000819055505050565b600060647f00000000000000000000000000000000000000000000000000000000000000006064610b549190610fe0565b6002600085815260200190815260200160002060030154610b759190611067565b610b7f9190611036565b9050919050565b600081359050610b9581611381565b92915050565b600081359050610baa81611398565b92915050565b600080600060608486031215610bc557600080fd5b6000610bd386828701610b86565b9350506020610be486828701610b9b565b9250506040610bf586828701610b9b565b9150509250925092565b600060208284031215610c1157600080fd5b6000610c1f84828501610b9b565b91505092915050565b60008060408385031215610c3b57600080fd5b6000610c4985828601610b9b565b9250506020610c5a85828601610b9b565b9150509250929050565b610c6d81611161565b82525050565b610c7c81611107565b82525050565b610c8b816110f5565b82525050565b610c9a81611119565b82525050565b610ca981611173565b82525050565b6000610cbc601f83610fcf565b9150610cc782611262565b602082019050919050565b6000610cdf601c83610fcf565b9150610cea8261128b565b602082019050919050565b6000610d02601583610fcf565b9150610d0d826112b4565b602082019050919050565b6000610d25601383610fcf565b9150610d30826112dd565b602082019050919050565b6000610d48601383610fcf565b9150610d5382611306565b602082019050919050565b6000610d6b601f83610fcf565b9150610d768261132f565b602082019050919050565b6000610d8e601583610fcf565b9150610d9982611358565b602082019050919050565b610dad81611157565b82525050565b6000602082019050610dc86000830184610c73565b92915050565b6000606082019050610de36000830186610c82565b610df06020830185610c64565b610dfd6040830184610da4565b949350505050565b6000606082019050610e1a6000830186610c82565b610e276020830185610c82565b610e346040830184610da4565b949350505050565b60006020820190508181036000830152610e5581610caf565b9050919050565b60006020820190508181036000830152610e7581610cd2565b9050919050565b60006020820190508181036000830152610e9581610cf5565b9050919050565b60006020820190508181036000830152610eb581610d18565b9050919050565b60006020820190508181036000830152610ed581610d3b565b9050919050565b60006020820190508181036000830152610ef581610d5e565b9050919050565b60006020820190508181036000830152610f1581610d81565b9050919050565b6000602082019050610f316000830184610da4565b92915050565b600060c082019050610f4c6000830189610da4565b610f596020830188610ca0565b610f666040830187610da4565b610f736060830186610da4565b610f806080830185610c73565b610f8d60a0830184610c91565b979650505050505050565b6000606082019050610fad6000830186610da4565b610fba6020830185610da4565b610fc76040830184610da4565b949350505050565b600082825260208201905092915050565b6000610feb82611157565b9150610ff683611157565b9250827fffffffffffffffffffffffffffffffffffffffffffffffffffffffffffffffff0382111561102b5761102a611204565b5b828201905092915050565b600061104182611157565b915061104c83611157565b92508261105c5761105b611233565b5b828204905092915050565b600061107282611157565b915061107d83611157565b9250817fffffffffffffffffffffffffffffffffffffffffffffffffffffffffffffffff04831182151516156110b6576110b5611204565b5b828202905092915050565b60006110cc82611157565b91506110d783611157565b9250828210156110ea576110e9611204565b5b828203905092915050565b600061110082611137565b9050919050565b600061111282611137565b9050919050565b60008115159050919050565b6000611130826110f5565b9050919050565b600073ffffffffffffffffffffffffffffffffffffffff82169050919050565b6000819050919050565b600061116c82611197565b9050919050565b600061117e82611185565b9050919050565b600061119082611137565b9050919050565b60006111a2826111a9565b9050919050565b60006111b482611137565b9050919050565b60006111c682611157565b91507fffffffffffffffffffffffffffffffffffffffffffffffffffffffffffffffff8214156111f9576111f8611204565b5b600182019050919050565b7f4e487b7100000000000000000000000000000000000000000000000000000000600052601160045260246000fd5b7f4e487b7100000000000000000000000000000000000000000000000000000000600052601260045260246000fd5b7f5072696365206d7573742062652067726561746572207468616e207a65726f00600082015250565b7f70726f76696465206e6674206f662074686573616d652076616c756500000000600082015250565b7f6974656d3120616c726561647920737761707065640000000000000000000000600082015250565b7f6974656d3120646f65736e277420657869737400000000000000000000000000600082015250565b7f6974656d3220646f65736e277420657869737400000000000000000000000000600082015250565b7f5265656e7472616e637947756172643a207265656e7472616e742063616c6c00600082015250565b7f6974656d3220616c726561647920737761707065640000000000000000000000600082015250565b61138a81611125565b811461139557600080fd5b50565b6113a181611157565b81146113ac57600080fd5b5056fea2646970667358221220ea7eb813c80722e77c85ef32702ab41b778a0c34061c04f57428b03b67946d4c64736f6c63430008040033",
  "linkReferences": {},
  "deployedLinkReferences": {}
}